:020000040000FA
:1000000083168601051585158312850186010F303B
:100010008600060D05190D200A2805190D281A203D
:100020007A206D206020552048203D203220272056
:100030001A200800861B0800061C0800861C080001
:10004000061D0800861D08001E3086000800861C5C
:100050000800061D0800861D0800061E08003C302A
:1000600086000800061D0800861D0800061E080000
:10007000861E0800783086000800861D0800061ECF
:100080000800861E0800061F0800F03086000800E1
:10009000061E0800861E0800061F0800861F0800AE
:1000A00006180800E03086000800861E0800061FBB
:1000B0000800861F0800061A0800C13086000800E4
:1000C000861A0800061F0800861F0800061C080084
:1000D00086180800833086000800861F0800061C6A
:1000E0000800861C08000619080086190800073059
:1000F00086000800861B0800061C0800861C0800F5
:0E010000061D0800861908000F308600080052
:00000001FF
